:020000040800F2
:10000000D8110020C1010008574200082D37000810
:1000100055420008CF2F0008795500080000000065
:10002000000000000000000000000000495000082F
:100030005933000800000000FD420008C9510008C3
:10004000DB010008DB010008DB010008DB01000820
:10005000DB010008DB010008DB01000809340008AF
:10006000DB010008DB010008DB010008DB01000800
:10007000DB010008DB010008DB010008DB010008F0
:10008000DB010008DB010008DB010008DB010008E0
:10009000DB010008DB010008DB010008DB010008D0
:1000A000DB01000875520008DB010008DB010008D5
:1000B000DB010008DB010008DB010008DB010008B0
:1000C000DB010008DB010008DB010008DB010008A0
:1000D000DB010008DB010008DB010008DB01000890
:1000E000DB010008DB010008DB010008DB01000880
:1000F000DB010008DB010008DB010008DB01000870
:10010000DB010008DB010008DB010008DB0100085F
:10011000DB010008DB010008DB010008DB0100084F
:10012000DB010008DB010008DB010008DB0100083F
:10013000DB010008DB010008DB010008DB0100082F
:10014000DB010008DB010008DB010008DB0100081F
:10015000DB010008DB010008DB010008DB0100080F
:10016000DB010008DB010008DB010008DB010008FF
:10017000DB010008DB010008DB010008DB010008EF
:10018000DB010008DB010008DB010008DB010008DF
:10019000DB010008DB010008DB010008DB010008CF
:1001A000DB010008DB010008DB010008DFF80CD0F0
:1001B00002F054FE00480047A9890008D811002029
:1001C0000648804706480047FEE7FEE7FEE7FEE7F1
:1001D000FEE7FEE7FEE7FEE7FEE7FEE7195200084E
:1001E000AD01000810B5FF49C4074FF040434FF080
:1001F000804205D08B66CB66C1E91C328A67CA672C
:10020000840709D5C1F80031C1F80431C1E942328F
:10021000C1F81021C1F81421400709D5C1F898315F
:10022000C1F89C31C1E96832C1F8A821C1F8AC21FC
:1002300010BD2DE9F14F002082B082468146029820
:10024000806F00287ED000220020401C0428FCDBA8
:10025000029800EBC203D3E90010A1FB0167D3E9C8
:10026000065400FB017701FB0077AB46AD1BCDE9DF
:1002700000670326A5FB06C8A64664EB070404FB3B
:100280000684002705FB0745DDE900671CEB060433
:100290007D41A4FB016705FB017504FB0055D3E913
:1002A0000C47341B65EB0705CDE900455D46A5FB12
:1002B00005670324A6FB04580EFB0B770BFB0E7798
:1002C00007FB04844FF0000C06FB0C44D3E91263D7
:1002D000761B63EB04034C18A4FB017C40EB000588
:1002E00005FB01C504FB0055A7FB014C05FB01C53F
:1002F00007FB0055A4FB017C05FB01C504FB005472
:10030000F6196341DDE90045AD0045EA9475A400A6
:10031000A4FB017C05FB01C104FB0014F01B73EB83
:10032000040103D50023404263EB0101BAEB000452
:1003300079EB010301DA82468946521C032A83DBEA
:10034000504600E016E0494602F0D5FB00EE900A68
:10035000A54890ED0E1A80EE810A10EE100A02F008
:10036000F1FBA04AD2F80C2203B09200BDE8F04F96
:1003700002F0E8B9002003B00146BDE8F08F2DE996
:10038000F14F0020009A0146926FE2B30024002250
:10039000521C042AFCDB009A02EBC405AA46D5E9EC
:1003A0000029A2FB023CD5E906769E46FB1A0325EE
:1003B000A3FB057809FB02CC02FB09CB66EB0B061D
:1003C00006FB05854FF0000C03FB0C5617EB0E03E4
:1003D000A3FB027C46EB0B0606FB02C203FB0923D0
:1003E000DAE90C25BA1AAB4103D50025524265EB78
:1003F0000303851A71EB030501DA10461946641CE4
:10040000032CC4DB00E015E002F075FB00EE900A5F
:10041000754890ED0E1A80EE810A10EE100A02F077
:1004200091FB704AD2F80C22BDE8F84F02EB420271
:1004300002F088B900200146BDE8F88F2DE9FE439F
:10044000684D80460024D5F810626F4605EBC40164
:100450003246D1E9020102F066F905EB8401B1F8F8
:1004600084100904401847F8240004F10104032C07
:10047000ECDB5C489821083002F09DF90120FFF781
:10048000B1FE95F8E8010199042807D1D5F81802C2
:10049000B0F5201F02DD052085F8E801524C0098D8
:1004A000636AC11A01D40E4600E01E1A0198A26ABE
:1004B000801A01D4074601E0019FD71BBE4206DD2A
:1004C000002901D4084606E00098181A03E0002825
:1004D00001D50198101A029AE16A521A01D4134602
:1004E00001E0029BCB1A834205DB002A01D41046AF
:1004F00001E00298081AD8F8241007F085FDD5F815
:100500001812814206DD0321684608F03DF90220F9
:1005100008F090F9009860620198A0620298E06289
:10052000BDE8FE83304AC2E9020170472E4AC2E9A3
:10053000060170472C4AC2E904017047294AD2F8E3
:10054000E0310360D2E97402C1E900027047254A34
:10055000D2F8E0310360D2E97602C1E900027047C7
:100560002DE9FE4781460020EA468A6F22B901EB59
:10057000800339F91020DA6701EB800239F9103075
:10058000D46F1D1B4AF82050136E9D4200DD156686
:10059000D36E9D4200DAD5660123002422464FEA3D
:1005A000E578A3FB056704FB057403FB08443346A9
:1005B00002EB420601EBC60606EBC00CDCE9007656
:1005C000FF186641CCE90076521C042AE9DB401C86
:1005D0000328CADB886F401C88670120C1F890009F
:1005E000BDE8FE87180700207809002030B50023F9
:1005F00002EB830550F823405B1CEC66032BF7DB12
:10060000C2F88810916F79B1002102EB810450F893
:100610002130E56F5B1B00D55B42256E9D4200DA01
:100620002366491C0329F0DB906F401C9067012072
:10063000C2F8900030BD10B500210B4600EB8102DE
:10064000491CD46ED46713660329F7DBD0F88810F1
:1006500040F8783FC0E9051310BDD0E92210081A10
:1006600070470146D1E91802824200DB1046896ECC
:10067000814200DB084670472DE9F0478046501E56
:10068000012686408946C2F12007404602F05AF80A
:1006900004460D46404649463A4602F044F83A467A
:1006A00002F050F8B04203DD641C45F1000505E09E
:1006B0007142884202DA641E45F1FF352046294620
:1006C000BDE8F087F7490020086248628862C86286
:1006D000086448648864C864086348638863C863BE
:1006E000086548658865C865704730B5EE4AD2F838
:1006F000483223B1D2E990542D1A8C4101DAC2E973
:1007000090015B1CC2F8483230BD30B5E64AD2F8E1
:10071000583223B1D2E994542D1A8C4101DAC2E93E
:1007200094015B1CC2F8583230BD30B5DE4AD2F8B5
:1007300028322BB1D2E98845041B71EB050401DA9C
:10074000C2E988015B1CC2F8283230BD30B5D64AF8
:10075000D2F838322BB1D2E98C45041B71EB050479
:1007600001DAC2E98C015B1CC2F8383230BD2DE9D8
:10077000F0470246CC48012508308046C36E016E22
:10078000046FC91A436E1B1B8B4200DB1946836E34
:10079000D8F87400181A884200DB0146C14F603750
:1007A000F86B884204DA002400F010FA204687E74C
:1007B000108E0124BC4EC0054FF000010ED5D6F8B6
:1007C00080303068834209DBB2F87420D20506D548
:1007D000D6F8B021824201DB052400E00C4674B358
:1007E000600719D5AF48C8388146FFF722FD000DD4
:1007F00040EA01300915C6E97601D7E904321B1A2F
:100800008A4102DA0025FFF7A1FF9821484601F04E
:10081000D2FF0420FFF7E6FCE0070ED04046FFF7CA
:1008200008FDC6E97C01D7E906340246181A8C4156
:1008300003DA00251046FFF778FF284640E7FFE778
:1008400002203DE71EB5044690F83000C0F3811049
:10085000032804D19449201D0831FFF781FE94F844
:100860007400C0F38110032805D18E4904F14800BB
:10087000C839FFF775FED4F8B8008B4AC0F381136E
:10088000A0326946032B0FD0C0F3411003281AD1C0
:10089000002004EB8003D3F8A0309B1341F82030F4
:1008A000401C0328F5DB09E0002004EB4003B3F90A
:1008B0008C3041F82030401C0328F6DB6846D4F821
:1008C000C010FFF793FE1EBD2DE9F047054600203E
:1008D000296BCA056AD501F05001402900D10120D9
:1008E00095F8741001F05001402900D1012095F8CD
:1008F000B8106D4C01F05001402900D030B100F02B
:1009000065F90020C4F8E00184F8E801654ED4F8E8
:100910000812E86A6036814228D0C4F808020A2822
:10092000306B0CDA40002060716B00EE100A491C3D
:10093000C4F80C12B8EEC00A05F0DAF905E0206040
:10094000706BC4F80C0296ED0E0A84ED850AD4F89B
:100950000C02C0F11000C4F810024FF48040C4F83B
:10096000180296F8341019208840F0632846FFF7E3
:1009700069FF94F8E811DFF8309105274FF002087D
:1009800009F1A009072911D2DFE801F0041127308D
:100990005E7E8500D4F8E001411CC4F8E0110A280D
:1009A00004DB00F013F9012084F8E80186E0D4F8B4
:1009B0009800012810D12846FFF7D9FE10B1012870
:1009C00003D004E084F8E87101E084F8E881484647
:1009D000FFF731FEFFF776FE70E0032084F8E801B0
:1009E0002846FFF72BFD00F0F1F867E02846FFF7F7
:1009F000BEFEE8B3012861D1B5F8B8004FF004039A
:100A0000C00515D54846FFF72CFE0146C017C4E9BE
:100A10007410D6E902C2BCEB0101824102DA84F80B
:100A2000E87108E04846FFF718FE316A884202D3B1
:100A300084F8E83124E0F4E97601FFF766FED4E9B2
:100A40000601FFF752FE39E0B5F8B800C0050BD536
:100A50004846FFF706FE0146C017C4E97410D6E900
:100A60000232591A824108DB2846FFF780FE00E077
:100A700003E010B1012803D020E084F8E8711DE004
:100A80002846FFF7DBFCD6E7062084F8E8010120C2
:100A900007F0D0FE0DE02846FFF769FE012805D0DB
:100AA00038B10BE0180900201807002084F8E8810D
:100AB00004E000F08BF84846FFF7BDFD0020FFE59D
:100AC00010B500214010002802D001F10101F9DC2D
:100AD0004FF0010001F1010100FA01F0434C00EE7A
:100AE000100AC4E90C01B8EEC00A05F001F984ED62
:100AF0000E0A94F8341019208840E06310BD10B538
:100B00004FF418713A4801F056FE4021374801F081
:100B100052FE0720FFF766FB344840F2DC5100220A
:100B2000C0E906121421C0E902124FF41671C0E99F
:100B3000041230492E4C01620120C4F8E40119204E
:100B4000FFF7BEFF0020C4F8080210BD10B54FF437
:100B50001871274801F02FFE0720FFF743FB2448B8
:100B600001210022C0F8E41180F8E81103210120DE
:100B700007F056FE07226421AFF2B320BDE8104013
:100B800007F092BC10B5012007F054FEAFF2C72069
:100B9000BDE8104007F0B4BE10B5FFF7B0FF002865
:100BA00005D1AFF25700BDE8104007F00BBD10BDF6
:100BB00010B5FFF7E7FFAFF26B00BDE8104007F09C
:100BC000CDBE0B49D1E97C0170477047084810B58C
:100BD0009821083001F0EFFD9821074801F0EBFD66
:100BE000BDE810400520FFF7FDBA0000780900209D
:100BF000180700200008AF2F50080020F0B5164657
:100C00002DED028B85B01F460C4605463C22FE4961
:100C1000A1F10C0001F0A8FDFB4950224C31A1F1DB
:100C2000100001F0A1FDF84996E80D000C3901F122
:100C30003C0C8CE80D005CCC01F1980080E85C0075
:100C40009FEDF28AD1F82401401CC1F82401062846
:100C500002DD0620C1F82401C0F106060C46A035CD
:100C60001AE004EB06116A463846483107F028FAC4
:100C700006EB460004EB80016A46284606F02EFC8F
:100C8000F0EEC00AB0EEC81AF4EEC10AF1EE10FAA6
:100C900001D2B0EE408A761C062EE2DB05B0B0EE43
:100CA000480ABDEC028BF0BD70B514462DED048BE7
:100CB0000E46B0EE408A00259FEDD59A416BF0EECE
:100CC000498A002904DBD0F8BC00032800D10125A3
:100CD000CD492422B431081F01F046FDCA480C3822
:100CE000002380ED388A00EB83015B1C91ED2F0A15
:100CF0000A2B70EE288AF6DBB2EE040AC822C8EE90
:100D0000800AC0ED390A9FEDC31A322E1DDB9FED1C
:100D1000C20AC0F81C21B6F57A7FC8EE001A00EEB0
:100D2000104AB8EEC00A61EE801A81EE810A2FDB0C
:100D30009FEDBA0AC8EE001A00EE104AB8EEC00ADB
:100D400061EE801A81EE810A22E041F2883194FB43
:100D5000F1F14942D0F81C3101EB8101C918C0F80A
:100D60001C1102D50021C0F81C119FEDAD0AC8EE80
:100D7000001A00EE104AB8EEC00A61EE801A81EE49
:100D8000810A29B9D0F82811012901D1B0EE490A08
:100D9000D0F8201109B1B0EE480AA2498C4201D125
:100DA000B0EE480AB5EEC00AF1EE10FA01D0C0ED7F
:100DB0003A0A90ED3A1A9C4B71EE600AF0EEE00AA6
:100DC00010EE901A994227DDD0ED2E0AF5EEC00AFA
:100DD000F1EE10FA20D1002D1ED0C0F81C212046C3
:100DE00001F09FFE41EC190B18EE100A01F0EAFE2B
:100DF0009FED8E1B53EC112B01F00EFE53EC192BC3
:100E000001F098FD9FED8B1B53EC112B01F004FEBC
:100E100001F004FF00EE100ABDEC048B70BD2DE95B
:100E2000F04F04462DED048BA9B09FED799A4FF059
:100E3000000A754ECDF810A00C3ECDF814A0CDF8E8
:100E400018A0D6F82011022003297DD000209FEDA4
:100E50007B8A20AD06EB800191ED2A0A05EB80012B
:100E6000401CB8EEC00A042820EE080A81ED000AF2
:100E7000F0DB0FA806F0B8FC24A806F003FD624BD7
:100E800024AA9C330FA920462793FFF7B7FEF0EE64
:100E9000408A04F1180006F071FD81096148D6F816
:100EA0003021824200DB0246B0EE680A2046FFF79E
:100EB000FBFED6ED3B0AB3460BA820EE200A86EDDA
:100EC0002E0A06F091FC13A90BA807F07FFA4E48F2
:100ED0000FAAF0300BA9064607F0F2F831460BA82E
:100EE00007F0CBF800210DF13C080DF14C090DF194
:100EF000100E00221346104601EB410C0CEB0007CC
:100F000059F8276008EB8007401C7F680328C6FB60
:100F10000723F3DB900F40EA83004EF82100491CC1
:100F20000329E6DBDBF820015E4600286AD0504644
:100F3000CDF818A0404200EE100AB8EEC00A20EE2C
:100F4000080A04F065FD00E0A2E08DED000A8DEDD9
:100F5000019A8DED029A0698404200EE100AB8EE12
:100F6000C00A20EE080A04F0FBFD8DED030A9DED9A
:100F7000060ADFED330AD6F83001B8EEC00A41F2B6
:100F8000883190FBF1F080EE201A00EE100AF8EEA6
:100F9000C01A81EE210AB0EE001AC0EE011ABDEEB1
:100FA000E10A10EE101A490000EE101A0691B8EE90
:100FB000C00A60EE200A00EE100AB8EEC00A20EE69
:100FC000800ABDEEC00A8DED060AB8EEC00A20EE1A
:100FD000080A04F01DFD8DED070A8DED089A8DEDD0
:100FE000099A9DED060AB8EEC00A20EE080A04F040
:100FF000B7FD8DED0A0A1CAA694620A807F0B8F8CB
:101000006A461FE04BE00000C40900200024744938
:101010000000000000409C4500004843000048429A
:101020000000C84340420F000E2DB23D00000000FA
:1010300000007940000000000088B34000008030CC
:10104000E102374707A91CA807F092F86F46DFEDC9
:10105000958AD4F8BC00002813DD002007EB80013E
:1010600091ED000A05EB800181ED000A20EE280ACF
:1010700006EB8001401C0428BDEEC00A81ED2A0A5F
:10108000ECDBD4F8BC00F6EE009A03280CD108E0A3
:10109000C6F8200129B0BDEC048BBDE8F08F06989E
:1010A00048E701F007FBE0B396ED2A0AB8EEC00A64
:1010B00020EE080A8DED1C0A96ED2B0AB8EEC00A48
:1010C00020EE080A8DED1D0A96ED2C0AB8EEC00A36
:1010D00020EE080A8DED1E0A96ED2D0AB8EEC00A24
:1010E00020EE080A8DED1F0AD6F820010028D1D085
:1010F00096ED2E0A20EE290A04F08AFC20EE280A3A
:10110000BDEEC00A86ED2A0AC6F8ACA0C6F8B0A0AB
:1011100096ED2E0A20EE290A04F022FD20EE280A80
:1011200000E004E0BDEEC00A86ED2D0A2BE096ED4E
:101130002E0A20EE290A04F06BFC8DED070A8DEDD6
:10114000089A8DED099A96ED2E0A20EE290A04F0F0
:1011500007FD8DED0A0A6A4607A920A807F008F8DE
:10116000684607F0B1F8002007EB800191ED000A16
:1011700006EB8001401C20EE280A0428BDEEC00AC0
:1011800081ED2A0AF0DBD4F8C010279807F09AFA0C
:10119000D6F820010028AAD0401E79E770B590F853
:1011A000B810414ACC064FF000034FF0030101D4C0
:1011B000C2E94813B0F82041E40509D4048EE405DF
:1011C00003D5B0F87440E40502D4C2E948131AE02C
:1011D000D2F8341139B1D0E93013C91A4FF47A7307
:1011E000B1FBF3F105E0D0F8B01044F62064A14261
:1011F00002DBC2F830110AE0D2F82C512944C2F8BF
:101200002C11A14201DA002070BDC2E94B31FFF779
:1012100006FEF8E710B54FF49C71234801F0CBFAB5
:10122000214C4FF080400021C4F8FC0044F8A80F86
:101230001D48A83007F046FA4FF47A70B7EE000A5E
:10124000606784ED110A10BD174880ED3B0A00204D
:1012500070471549C1F82801002070471249C1F8AC
:1012600034010020704704224FF41671AFF2D3000E
:1012700007F01AB9AFF2DB0007F042BB10B5FFF779
:10128000C9FF09490020C1F82801C1F83401AFF2B3
:101290002900BDE8104007F095B9AFF2350007F01E
:1012A0005DBB00000000804EB80900201FB501465C
:1012B0001022684601F058FAF7489DE80E0080E8D1
:1012C0000E00F6499DF80C0081F8B001002004B032
:1012D00010BD1FB5F0490EC98DE80E00EF49102270
:1012E00091F8B0118DF80C10694601F03DFA00201C
:1012F000EDE72DE9F04F91B000251821684601F087
:101300005AFA0024182106A801F055FAE348A0462D
:10131000C14690F8C01101297ED1D0F8B8B1D0F8FB
:10132000B4A10022C2EBC20000EB4001DB4800EB9D
:10133000810E9EF850000F90002864D000215FE0DD
:10134000DDE900076D1C5EF821300E93181847EB9D
:10135000E376CDE900060EEB8100EDB243690D9313
:10136000DDE9027C4FEAE376DB1946EB0C06CDE9BA
:101370000236836ADDE9047CDE170C93DB1946EB49
:101380000C06CDE90436C06B0E9BDDE9067C83FBC1
:101390000063360C46EA0346F6194CEB2343CDE9CD
:1013A00006630D9BDDE9087C83FB00634FEA16466C
:1013B00046EA0346F6194CEB2343CDE908630C9B40
:1013C000DDE90A7C83FB00634FEA164646EA0346E2
:1013D000F6194CEB2343CDE90A6380FB00634FEA27
:1013E000164646EA034616EB080849EB234904442F
:1013F000584501DA834602E0504500DD8246491C2B
:101400000F9888429CDC521C052A8BDBA348AAEB70
:101410000B01D0F8BC0100E056E0814254DBA5FB93
:101420000823E0170026109006FB083005FB090092
:10143000CDE90C2084FB0420110C41EA004100148A
:10144000CDE90E0106A800EBC601D1E90003A0FB1F
:1014500005B203FB0522002100FB012C684600EBCE
:10146000C601D1E90001A0FB043701FB0471109A09
:1014700000FB0210190C41EA00490CAA4FEA204A6D
:1014800092E889000F9983EA070880EA010252EA8C
:10149000080212D0421A63EB0703BBEB09006CEBA6
:1014A0000A0C4FEA0C4141EA1041000401F00AF92C
:1014B0007A4901EB8601C1F8A401761C032EC1DB39
:1014C0007648012180F8B01111B00020BDE8F08FFE
:1014D000F8B5724D0E460446D5E96D01091A05228C
:1014E00091FBF2F1301A90FBF1F0C0B28DF80000E0
:1014F000042801D92020F8BDC0EBC00000EB40005B
:1015000005EB800191F85000052816D0421C81F8A7
:1015100050209DF80010C1EBC10101EB410105EB2A
:10152000810202EB8001CE63236842F820306068BC
:101530004861A06888620020F8BD01F14003181FCF
:101540001022194601F010F99DF800001022C0EB9E
:10155000C00000EB400005EB8000011D01F004F924
:101560009DF800001022C0EBC00000EB400005EB2E
:10157000800000F11801143001F0F6F89DF8000029
:101580001022C0EBC00000EB400005EB800000F132
:101590002C01283001F0E8F80420BAE730B585B016
:1015A000044603A9684606F0A7F904A806F05AFA0B
:1015B00002282BD0D4F8E4000399401A374991F857
:1015C000B02112B308B3D1F8A421009C80FB0232F1
:1015D000150445EA134222440092D1F8A821019C47
:1015E00080FB0232150445EA134222440192D1F8ED
:1015F000AC11029A80FB0110030443EA114010442D
:1016000002900321684607F0BFF80CE0606B0328E6
:1016100009D106F087F930B168460399FFF758FF02
:1016200008B9FFF766FE05B0002030BD10B54FF4D5
:10163000E2711A4801F0BFF818481949C0F8B4110E
:101640004FF4AA01C0F8B8114FF4A021C0F8BC11A2
:10165000012180F8C011002010BD1049C1F8B80167
:10166000002070470D49C1F8B401002070470B49B4
:10167000C1F8BC010020704758B10849D1F8A42135
:101680000260D1F8A8214260D1F8AC11816000203D
:101690007047052070470000940C0020F00A0020DD
:1016A0000000D8FF2420F5E720B12D4981F8C001C2
:1016B0000020EFE72420EDE7294B93F8B101002843
:1016C000E8D0D3E96D10401A052190FBF1F000201D
:1016D000C0EBC00101EB410103EB810191F8502007
:1016E00022B1002100E0491C8A42FCDC401C052894
:1016F000EEDB0020CEE7082296211A4806F0D4BE81
:10170000184807F0FDB810B5FFF790FF4FF49A7333
:1017100010221549154806F01FFF20B9AFF2290025
:1017200006F050FF08B1012010BD0D49012081F8DD
:10173000B101002010BD10B5094C94F8B10100288A
:1017400008D0084807F0DCF8AFF2550007F006F9BA
:1017500008B1012010BD002084F8B10110BD0000C7
:10176000F00A00209D150008D3120008AD120008F1
:10177000F0B51D462DED028B99B090ED000AD0ED2D
:10178000010A1746B8EEC00AB8EEE01AF8EEE00A11
:101790000E4620EE000A044601EE200AD0ED020AB1
:1017A000B8EEE01AF8EEE00A01EE200A04F0A0FA22
:1017B000F0EEC00A10EE900AB0F18D4F7EDDD6ED4E
:1017C000000AB8EEE01ADFEDFE0A21EE201A8DEDD8
:1017D000041A96ED011AB8EEC11A21EE201A8DED09
:1017E000051A96ED021AB8EEC11A21EE201A8DEDF7
:1017F000061A96ED031AB8EEC11A61EE200ACDED75
:10180000070A9FEDF08A10AA8DED0C8AD4ED000A2C
:101810000CA904A8F8EEE00A80EE801A8DED0D1AEE
:10182000D4ED010AF8EEE00A80EE801A8DED0E1A72
:10183000D4ED020AF8EEE00A80EE801A8DED0F1A60
:1018400006F096FC14A904A806F023FC6A4614A925
:1018500010A806F08DFC9DED021ADDED010ADA49B3
:1018600021EE010A00EEA00A10EE100A884202DA08
:101870009FEDD60A11E010EE100AD549884202DA2F
:101880009FEDD40A09E010EE100AD349884202DA2B
:10189000B5EE000A01E09FEDD10A01EE907AB8EEB4
:1018A000E12ADFEDCF2A8DED088AC2EE221A21EE61
:1018B000800A21EE001A8DED091A00E038E020EED2
:1018C000C00A6A4604A98DED0A0A8DED0B8A08A8A4
:1018D00006F04EFC6A4604A9104606F0ADFB6846C9
:1018E00006F0B0FCDDED000A9FEDBE0A60EE800A56
:1018F000FDEEE00AC5ED000ADDED010A60EE800AAA
:10190000FDEEE00AC5ED010ADDED020A60EE800A97
:10191000FDEEE00AC5ED020ADDED030A20EE800AC5
:10192000BDEEC00A85ED030A19B0BDEC028BF0BD17
:1019300096E80F0085E80F00F6E72DE9F0410C4628
:101940002DED068B054690ED000AD0ED010AB8EEAC
:10195000C00AB8EEE01AF8EEE00A20EE000A01EE46
:10196000200AD0ED020AB8EEE01AF8EEE00A01EE25
:10197000200A04F0BDF910EE100A4FF07E58002640
:101980004FF0804740453FDDD5ED020AB7EE009AA3
:10199000F8EEE00AC0EE808A39EE680A9FED89AA67
:1019A000B5EEC00AF1EE10FA01DCB0EE4A0AF6EE2E
:1019B000009A20EE290A04F09BF9B0EE408A38EE36
:1019C000890AB5EEC00AF1EE10FA01DCB0EE4A0A5F
:1019D00020EE290A04F08CF9F0EE408A95ED000A19
:1019E000B8EEC00A60EE000A95ED010AB8EEC01A22
:1019F000B8EEC00A41EE000AB0EE600A04F078F9D1
:101A000010EE100A404503DCC4E90076A66025E02C
:101A1000DFED740A28EEA01ABDEEC11A84ED001A9B
:101A200095ED011AF8EEC11A81EE801A21EE081A1E
:101A300061EE200AFDEEE00AC4ED010AD5ED000AD0
:101A4000F8EEE00A80EE801A21EE080ADFED660A61
:101A500020EE200ABDEEC00A84ED020AE660BDEC6D
:101A6000068BBDE8F08170B590ED000AD0ED010A5B
:101A70000546B8EEC00AB8EEE01AF8EEE00A0C46E9
:101A800020EE000A01EE200AD0ED020AB8EEE01ABC
:101A9000F8EEE00A01EE200AD0ED030AB8EEE01AF3
:101AA000F8EEE00A01EE200AB5EEC00AF1EE10FAF7
:101AB00007D84FF08040206000206060A060C860C0
:101AC00070BD04F015F9B7EE001AC1EE000A9FEDE3
:101AD000450A20EE800AD5ED000AF8EEE00A60EE35
:101AE000800AFDEEE00AC4ED000AD5ED010AF8EE29
:101AF000E00A60EE800AFDEEE00AC4ED010AD5EDD1
:101B0000020AF8EEE00A60EE800AFDEEE00AC4ED9B
:101B1000020AD5ED030AF8EEE00A20EE800ABDEED7
:101B2000C00A84ED030A70BD70B5044690F8300019
:101B300088B040067ED5A069002801DB014600E0A0
:101B400041424FF480320026284D91420BDAE16980
:101B5000002900DA4942914205DA216A002900DAB7
:101B60004942914267DB002800DA40424FF4C80145
:101B700088420BDCE069002800DA4042884205DC3C
:101B8000206A002800DA4042884201DD032000E09C
:101B90000220A863696BA06A814242D0686394ED19
:101BA0000A0A9FED131AF8EEC00A80EE810ADFEDF3
:101BB000110A20EE200A10EE100A01F003F81BE0D3
:101BC000000080300000000017B75139A69BC43BCD
:101BD0000AD7233C8FC2753DCDCC4C3ECDCCCC3EFC
:101BE0000014CD470000804E000080CEB40C0020D1
:101BF000002474490000004E9FEDFA1B53EC112B9A
:101C000000F098FE9FEDF91B53EC112B00F092FEB3
:101C10009FEDF81B53EC112B00F0FEFE00F0B3FF1C
:101C200028630496296BA06906F0EEF90590296BEC
:101C3000E06901E022E023E006F0E6F90690296B76
:101C4000206A06F0E1F907906A4604A9EB4806F01D
:101C500037FA0098E94A80010090019869468001AE
:101C60000190029880010290039880010390104631
:101C700006F0D0F9E1490846FFF7F5FE08B070BD5F
:101C8000AE63FBE770B504462DED048B8EB0D0F843
:101C90002001410676D5D94DD4F81011D84B2A68C9
:101CA000891AD4F82C215A438A4201DA032100E030
:101CB0000221A963800504F5887602D5CF49304614
:101CC000B5E0002107A805F017FECC490C223C31F5
:101CD00007A800F07BFD20B9D4F82801A96D88423F
:101CE0007ED020886B4680B207AA616A05F054FC5A
:101CF0009DED000ADDED010AB8EEC00AB8EEE01A6B
:101D0000F8EEE00A20EE000A01EE200ADDED020AFC
:101D1000B8EEE01AF8EEE00A01EE200A03F0E8FF60
:101D2000B0EE408A9FEDB70A68EE000A9FEDB61A42
:101D300080EE810ADFEDB50A20EE200AD4ED4A0AD2
:101D4000F8EEE00A60EE800A1FED571A80EE810A75
:101D5000F6EE000A20EE209AB0EE490A03F058FE93
:101D6000F0EE408AB0EE490A03F0FAFE18EE100ACF
:101D70004FF08041884206DA0020C5E9121028653C
:101D8000686532E055E05FED690A68EEA00AFDEE95
:101D9000E00AC5ED120A5FED6C0A20EE200ADDEDC7
:101DA000000AF8EEE00A60EE200A80EE881AFDEEE6
:101DB000C10AC5ED130ADDED010AF8EEE00A60EE96
:101DC000200A80EE881AFDEEC10AC5ED140ADDED89
:101DD000020AF8EEE00A20EE200AC0EE080A00E04F
:101DE0000DE0BDEEE00A85ED150A07AB93E80700AC
:101DF00005F13C0383E80700D4F82801A8657F4972
:101E000003AA4831304606F05BF97C480AAA5C30E8
:101E100003A9044606F054F92146304606F02DF990
:101E200003AA0AA9754806F04BF9744903A8FFF7FD
:101E30001AFE0EB0BDEC048B70BD1FB5044669469A
:101E40006E4806F01AF96D4A69462032204606F0BF
:101E500037F96A491DCC103181E81D001FBD2DE9FD
:101E6000F0470446654E90F8740006F15C0A06F1EE
:101E70002008012500F05001103692B004F5887951
:101E800004F15C07402906D094F8200100F05000CE
:101E900040280DD01DE031463846FFF74EFDB4F81E
:101EA0002001C0050CD55146484606F0E6F807E08B
:101EB0005146484606F0E1F8B4F87400C00508D56C
:101EC00069464E4806F0D9F842466946304606F063
:101ED000F7F8B4F82001C005204602D5FFF7D2FE7E
:101EE00001E0FFF721FE32464449404606F0E8F89B
:101EF00094F8740040066FD5208EB4F82011084382
:101F0000C0056DD50FAA3946304606F037FAD4E938
:101F1000172080FB0001C2FB0201626E374FC2FB3B
:101F200002014FF08042801A71F1020014DB04A814
:101F300005F054FDDDE9042080FB0001C2FB020135
:101F4000069AC2FB02014FF08042801A71F1020032
:101F500002DB0420B8630BE0B86B042808D041F220
:101F60008832022806D0032804D0012852D009E084
:101F7000002507E0E16E91FBF2F5012D00DA012565
:101F8000032800D0AD002248002445431098079450
:101F90008002294606F038F808900F9829464042FA
:101FA000800206F031F8CDE909040BAA314607A8F2
:101FB00006F086F832460BA9104606F02BF831469B
:101FC0000846FFF750FD69460C4806F056F84246B1
:101FD0006946304606F074F812B00020BDE8F0877C
:101FE00020E00000112D4454FB21094000000000B6
:101FF000000070400000000000806640B40C00202B
:1020000071981C00DB0F494000003443000080370A
:10201000A69BC400E06E90FBF2F0012800DA0120DC
:102020004500AFE7334619463846E26EFFF7A0FB9E
:10203000C9E770B50446008EC105D4F8200107D465
:10204000B4F87410C90503D4C10501D4002070BDD3
:10205000C0F30120032807D02046FFF700FF2348E4
:10206000A16B06F03BFCF1E704F588711F482EC90F
:1020700080E82E00F3E71E4806F042BC1B4810B56E
:102080006C21103800F097FB18484FF08041103851
:10209000016101600162C163C165002010BD184883
:1020A00010B5082213A1006800F090FB08B132209F
:1020B00010BD1322BDE81040C8210D4806F0F4B948
:1020C00010B5FFF7DBFF002805D1AFF22D00BDE80A
:1020D000104006F077BA10BD10B5054806F010FCA8
:1020E000AFF24500BDE8104006F038BCC40C00203B
:1020F00033200008654D504C20352E310000000083
:1021000054000020002803DDFE490122C1E920021D
:102110000020704710B5B821FA4800F04CFB9FED45
:10212000FA0AF84880ED030A9FEDF80A80ED020AEA
:102130009FEDF70A4FF0804180ED000AB3EE0E0AE2
:1021400080ED010A41664FF4FA619FEDF20AC16722
:1021500080ED270A002010BD70B5EA4C002594EDF3
:10216000001AB4EEC01AF1EE10FA17D394ED011A6A
:10217000B4EEC01AF1EE10FA10DC2069012817D174
:1021800094ED030AB4EEE00AF1EE10FA06D394EDF2
:10219000020AB4EEE00AF1EE10FA09DD606F20B930
:1021A000D848A16D183006F08DFA0120C4E91D054C
:1021B000D4E91E01884204DB606F012800D1E56587
:1021C000656770BD10B504462DED028BB0EE408AF8
:1021D00005F018FBCB49002220B918EE100ACE4BAF
:1021E000984202DD0A614A6102E00869002808D1CC
:1021F000486920444861B0F5FA7F02DD0120C1E959
:102200000402BDEC028B10BDF0B58DB00D46144636
:102210000646694606F0DAF809AA3146284605F06E
:102220004FFF2946304605F028FF0021EC460DF10E
:10223000240E00231A46184601EB41073D180EEB09
:1022400080065CF825507668401CC5FB06320328E2
:10225000F4DB980F40EA820044F82100491C03296E
:10226000E7DB0DB0F0BDA7490020C1F88C00704736
:1022700010B590ED000AD0ED010AB8EEC00AB8EE34
:10228000E01AF8EEE00A20EE000A01EE200AD0ED96
:10229000020AB8EEE01AF8EEE00A01EE200A03F0B6
:1022A00027FDDFED9E0A20EE200A10BD0022954991
:1022B000012330B1012810D0C1F8983041F88C2F9B
:1022C00031E081ED280A81ED290A9FED950A81ED23
:1022D0002A0AE1E924328A607047D1ED280A91ED9B
:1022E000271A70EE600AF0EEE00AF4EEC10AF1EE91
:1022F00010FA16D2D1F89400401CC1F89400D1ED28
:10230000290A312830EE800A81ED290AE4DD022015
:10231000DFED840AC1F8900080EE201A81ED2A1AC0
:10232000704741F8902F4A6070472DE9F047984672
:102330002DED088B8AB017468A4604469FED788AB1
:102340000025704E039504950595D6F88800002861
:102350007DD005F0F5FA10B103A805F0BDFAD6F866
:1023600080004FF00109002817DDC6F8849005F0C1
:10237000E7FA48B103A805F001FB8009B0F5C87F72
:1023800002D2D6F8800004E0D6F88000001BC6F820
:102390008000002801DCC6F8845005F079FD002893
:1023A00055D000209FED5D9A57F8201000EE101ACE
:1023B00058F82010401CB8EEC00A032860EE090A45
:1023C00000EE101AB8EEC00A20EE800A00EE098A6C
:1023D000EADB3846FFF74CFFF0EE408A4FF07E57BD
:1023E00088EE280AF7EE00AA10EE100AB84201DDC6
:1023F000B0EE6A0A10EE100ADFF82C81BFEE00BAC8
:10240000404501D9B0EE4B0A03F04EF9D6F88C00E6
:10241000B0EE40AA98B196ED000AB4EEE80AF1EEEB
:1024200010FA0CDD96ED010AB4EEE80AF1EE10FAAE
:1024300005D2B0EE4A0AD6F89000FFF737FF68469B
:1024400005F0ECFA2F490C22AC31684600E0E2E0DE
:1024500000F0BCF918B9D6F8980001286BD12948CA
:102460009DE80E00AC3080E80E00009818B9019885
:1024700008B90298F0B36846FFF7FAFEB0EE408A5A
:10248000B5EEC08AF1EE10FA55D0F2EE049A38EEAD
:10249000690A20EE000A03F02BFC86ED010A38EEF3
:1024A000290A20EE000A03F023FC86ED000A9DEDC8
:1024B000020AB8EEC00A60EE090AB0EE480A80EEE1
:1024C000808A18EE100AB84201DDB0EE6A8A18EE72
:1024D000100A404501D9B0EE4B8AB0EE480A03F02D
:1024E000E3F8D6ED270A30EE600A86ED020AB0EE78
:1024F000480A00E024E003F0D7F8D6ED270A30EED2
:10250000200A14E0200D00200000B4420000B4C2F4
:10251000000070427B142E3E00401C4600008037B5
:102520000000000000004842000080BF03E086ED8C
:10253000030AC6F88C50DFF88481F16D21B32FE0D7
:102540001FED0D0A86ED000AB3EE0E0A86ED010AB4
:10255000D6F89800012808D01FED140A86ED020A6B
:102560001FED170A86ED030AE5E796ED2A0A96EDB8
:10257000271A70EE410A30EE010AC6ED020A86ED16
:10258000030AC6F89850D6E70027C6F85C9006EB19
:1025900007104146183005F061F97F1C042FF6DB67
:1025A000464906AA0C310F465046FFF72DFE394624
:1025B000504605F062FD03A805F0E0F900EE100AB0
:1025C000DFED3F0A2046B8EE400A20EE200AFFF772
:1025D000F9FDF0EE4A0AB0EE680AFFF7BDFDD6E954
:1025E0001E01884201DA2044B067706F90B9306EE6
:1025F00020443066B0F57A7F0CDD30493022303926
:10260000A1F11000356600F0AFF82C4841461038B3
:1026100005F024F9706F0AB0BDEC088BBDE8F087B7
:1026200070B588B0044604A805F02CF9D4E930014F
:10263000451A684605F0D8F8064604AB04F1A00236
:1026400069462846FFF771FE06F04EF808B030469E
:1026500070BD04224FF49671AFF23B0005F024BF29
:10266000AFF2430006F04CB910B5FFF753FD002858
:102670000DD1124800215838C0F88C100121C0F843
:102680008810AFF23100BDE8104005F09BBF10BDCF
:1026900010B5AFF2730006F033F9AFF27B00BDE87E
:1026A000104006F02DB9054901205839C1F88C00B9
:1026B0000020704701485838406F7047780D00205F
:1026C0000000803C2DE9F0410024061B254671F1F5
:1026D000000605DA01240027D0EB070067EB0101B3
:1026E000161E73F1000605DA0027D2EB070201255A
:1026F00067EB030300F0C4FA86460E4617469C4675
:10270000AC4204D00025D0EB050E65EB010624B1E8
:102710000020D2EB000760EB030C704631463A46CE
:102720006346BDE8F081202A04DB203A00FA02F17A
:10273000002070479140C2F1200320FA03F31943AF
:1027400090407047202A06DBCB17203A41FA02F06E
:1027500043EAE07306E041FA02F3D040C2F12002FE
:10276000914008431946704710B5431A934209D265
:102770008318881803E010F8011D03F8011D521E8C
:10278000F9D210BD40EA01039B0703D009E008C954
:10279000121F08C0042AFAD203E011F8013B00F826
:1027A000013B521EF9D210BDD2B201E000F8012B5C
:1027B000491EFBD270470022F6E710B513460A46C1
:1027C00004461946FFF7F0FF204610BD30B5044619
:1027D0000020034600E05B1C934203D2E05CCD5C2A
:1027E000401BF8D030BD2DE9FE4F804681EA030042
:1027F000C00F0C46009021F0004123F00045B8EBDB
:102800000200A94105D24046214690461C460B468F
:10281000024623F00040104347D0270DC7F30A00BB
:10282000C3F30A510290401A019040286BDAC3F3B7
:10283000130040F4801B0098924620B10023D2EB95
:10284000030A63EB0B0B01985946C0F14002504656
:10285000FFF769FF06460D4650465946019AFFF7B5
:1028600071FF10EB08006141002487EA115284EAED
:10287000E7731A4340D0009A62B3019A012A4FEAE3
:10288000075215DC001B61EB02014FF0004202EA27
:102890000752CDE90042001C41F5801132462B461B
:1028A00000F075FA03B0BDE8F08F40462146F9E725
:1028B000001B61EB0201001C41F5801300185B4115
:1028C0002018A2F5001747EB030140EAD570B619AE
:1028D0006D4111E06D084FEA360645EAC0754FEAD2
:1028E0000752001B61EB0201001C41F580114908F1
:1028F0004FEA30000019514132462B4603B0BDE883
:10290000F04F00F035BA0098012240000023D0EBD0
:10291000020263EBE073009821464FEAE074B8EBE3
:10292000000061EB0401E9E783F000435BE781F01D
:10293000004158E72DE9FE4F81EA030404F000440A
:1029400021F0004100944FF0000B23F0004350EAC7
:1029500001045ED052EA03045BD0C3F30A54C1F30E
:102960000A552C44A4F2F3340194A0FB0254C1F3A1
:10297000130141F48011C3F3130343F4801301FBEB
:10298000024400FB034E840A970A44EA815447EA52
:102990008357A4FB076802958D0A05FB07854FEA5C
:1029A000932C04FB0C542705029D4FEA065847EA76
:1029B0001637B5EB08056EEB070C870E920E47EA4B
:1029C000811742EA8312A7FB0201B6EB0B0164EB0D
:1029D00000042B0D43EA0C335E1844EB1C50DA461E
:1029E0005146E7FB0201C5F313044FEA0B3343EAF8
:1029F00014534FEA0432019C43EA0603A4F10C0489
:102A00000294009CCDE900B400F0C1F903B0BDE828
:102A1000F08F00200146F9E72DE9F04D81EA03042B
:102A200004F0004B21F0004514464FF0000A23F05B
:102A3000004150EA050220D054EA01021DD0C5F33E
:102A40000A570246C5F31303C1F31300C1F30A5634
:102A500040F4801543F48013A7EB0608101BD646FC
:102A600008F2FD3873EB050002D308F1010801E01C
:102A700092185B41B8F1000F03DA00200146BDE86F
:102A8000F08D00204FF48011064684460EE0171B9F
:102A900073EB050705D3121B63EB050306434CEAF2
:102AA000010C49084FEA300092185B4150EA0107D7
:102AB000EDD152EA030012D082EA040083EA050154
:102AC000084305D0101BAB4106D20122002306E0CB
:102AD00000224FF0004302E06FF0010253101AEBA6
:102AE00006004CEB085110EB0A0041EB0B01BDE86E
:102AF000F04D00F03DB9F0B4CA17CB0F5040514033
:102B0000C61841F100054FEAC372314628004FF064
:102B1000960303D0B623F0BC00F0FCB83046002189
:102B2000F9E70EB5C10F80EAE0700844CA0700213A
:102B300040F233438DE80E000A460B4600F027F9B9
:102B400003B000BD10B500F0004420F00040C20DFD
:102B5000C0F3160040F400007F2A02DA002001468C
:102B600010BD0021962A03DCC2F19602D04002E09B
:102B7000963AFFF7D8FD002CF2D00023D0EB0300EB
:102B800063EB010110BD70B5C1F30A5201F00045BD
:102B90000024C1F3130140F2FF3341F480119A4243
:102BA00001DA002070BD40F233439A42A2F2334270
:102BB00003DC524200F095F800E090402C43F1D045
:102BC000404270BD00F0004230F000400AD0C10D1C
:102BD00001F56071C0F3160042EA0151C2084007D6
:102BE00011437047002001467047000030B5041EB5
:102BF00071F1000404DB4FF00044404264EB01013A
:102C0000141E73F1000405DB1C464FF000435242D2
:102C100063EB0403994208BF904230BD01F00043CA
:102C200030B421F0004150EA010206D00A0DA2F5AD
:102C30006072C1F31301002A02DC30BC002070472F
:102C4000440F44EAC104C100E01830BC00EBC2509C
:102C500000F057B830B50B46014600202022012471
:102C600009E021FA02F59D4205D303FA02F5491B5A
:102C700004FA02F52844151EA2F10102F1DC30BD70
:102C80002DE9F05F0546002092469B4688460646A1
:102C9000814640241BE0284641464746224600F034
:102CA00020F853465A46C01A914110D3114618468F
:102CB0002246FFF738FD2D1A67EB01084F462246E2
:102CC00001200021FFF72FFD17EB00094E41201EC8
:102CD000A4F10104DFDC484631462A464346BDE8FC
:102CE000F09F202A04DB203A21FA02F000217047ED
:102CF00021FA02F3D040C2F1200291400843194664
:102D000070470029A8BF7047401C490008BF20F049
:102D10000100704710B4B0FA80FC00FA0CF050EAE1
:102D2000010404BF10BC704749B1CCF1200421FA62
:102D300004F411FA0CF118BF012121430843A3EB5D
:102D40000C01CB1D4FEA00614FEA102042BF00206A
:102D500010BC704700EBC35010440029A4BF10BC46
:102D60007047401C490008BF20F0010010BC7047AC
:102D700010B5141E73F1000408DA401C41F1000183
:102D800092185B411A4301D120F0010010BD2DE9DA
:102D9000F04D92469B4611B1B1FA81F202E0B0FAD1
:102DA00080F220329046FFF7BEFC04460F4640EA10
:102DB0000A0041EA0B0153465A46084313D0114614
:102DC00053EA010019D0C8F140025046FFF789FFCD
:102DD00005460E46504659464246FFF7A4FC0843B6
:102DE00005D0012004E020463946BDE8F08D0020E2
:102DF000054346EAE0762C4337430A986305E40A24
:102E0000A0EB08000022FD0A44EA47540A3002D52C
:102E100000200146E9E7010510196941DDE908458F
:102E200000196941BDE8F04DA2E7C1F30A52C1F3B0
:102E3000130140F2FF3341F480119A4202DA00207C
:102E40000146704740F233439A42A2F2334202DC19
:102E50005242FFF746BFFFF766BC0000064C074D25
:102E600006E0E06840F0010394E80700984710345A
:102E7000AC42F6D3FDF79EF934C1000854C10008F6
:102E8000002904D0816841F00101816070478168A8
:102E900021F001018160704710B5074C2268074995
:102EA0000A40D0E900131943D0E902300343194323
:102EB0001143216010BD000004230140E030FCFFFD
:102EC000002904D0816841F4807181607047816875
:102ED00021F4807181607047002904D0816841F439
:102EE000007181607047816821F4007181607047D2
:102EF00030B542680F4B1A400C790B6842EA042245
:102F00001343436083680C4A1340D1E903422243D0
:102F10004D798C6844EA450422431A438260C26AB0
:102F200022F47002097D491EC9B242EA0151C16210
:102F300030BD0000FFFEFFFCFDF7FFC070B50726A7
:102F400009290AD9C568A1F10A0404EB4404A64082
:102F5000B543A3401D43C56007E0056901EB41048B
:102F6000A640B543A3401D4305611F23072A09D28C
:102F7000446B521E02EB820293409C4391400C43EF
:102F8000446370BD0D2A09D2046BD21F02EB82028A
:102F900093409C4391400C43046370BDC46A0D3A56
:102FA00002EB820293409C4391400C43C46270BD8B
:102FB000816841F0804181607047002101600171AA
:102FC00041718160C1600161012101757047FEE7B7
:102FD00010B50121CC05204601F0A0F92046BDE83E
:102FE0001040002101F09AB901460020024A5268BF
:102FF0000A4200D00120704700B0024030B50024E2
:103000002A4B19682A4A114019601968026811434D
:103010001960596B21F007015963596B42681143DC
:1030200059634168002928D001292DD0022930D0C8
:10303000032933D0C1680A010169090244692403E4
:103040008568214315430D43996B0D439D63816949
:10305000D963196C6FF30D011964196CC2691143BE
:103060001964818C09045A6C02F040425A645A6C0B
:10307000006A02430A435A6430BDC1680A02018AE9
:103080000904047D2406DBE7C1680A02018A0904F9
:10309000D6E7C1684A010169C902D1E7C1684A019E
:1030A000016989024469E403CAE7000000B00240F4
:1030B000FCE0FCFF0248016841F00101016070473B
:1030C00000B00240002904D0016841F00101016014
:1030D0007047016821F001010160704730B5036855
:1030E000124A1340CC680A682243D1E905452C43B3
:1030F0002243CC6922430C6A22434C6A22438C6AE5
:1031000022434C6B22438C6B22431A430260426978
:1031100022F00703D1E90B2422431A4342610A69D2
:1031200042604A6882608968C16030BD3F801CF09F
:10313000F0B591B000250024674E2021304602F002
:10314000ADF928B12021304602F098F904F00AF9CF
:10315000624804F0F9F8624E6048316900688142C3
:1031600003D200F5FA703061012570790027B0B103
:10317000052201214FF4FA7005F0FEFF04F000F97A
:1031800004F08CFE04F000FA05F018F930790028FC
:10319000FCD000221146104605F0EEFF77717078E2
:1031A00000B130793079B0B13078A0B110A90EA853
:1031B00005F0E0FDBDF938000B90BDF93A000C9028
:1031C000BDF93C000D9000210BA8109A04F014F9F1
:1031D000012437717AE03079E8B3B078D8B30AA81F
:1031E0000BA9CDE9001010AB03AA0CA90EA803F09F
:1031F000EFFC9DF8280000B93771BDF82C0010F0E5
:10320000700F0DD00EA8109904F02AF901243DB1D9
:1032100010A902A805F03AFE1099029804F050F99E
:10322000BDF82C0000070ED5BDF930000790BDF9A0
:1032300032000890BDF934000990002107A8109AC7
:1032400004F0DAF80124BDF82C00C0053ED50021B9
:1032500003A8109A00E003E004F01AF9012435E015
:10326000307998B337710AA800900BAB10AA0CA95B
:103270000EA805F0DFFF9DF8280008B1012030718D
:103280009DF82C0010F0700F0DD00EA8109904F0CE
:10329000E7F801243DB110A906A805F0F7FD109943
:1032A000069804F00DF99DF82C0000070ED5BDF925
:1032B00030000790BDF932000890BDF93400099044
:1032C000002107A8109A04F097F80124002C01D0DF
:1032D00004F0ECF911B0F0BD0010014058000020DE
:1032E000A800002016480088DFED160A00EE100A3C
:1032F0001648B8EE400A20EE200ADFED130A60EE11
:10330000200AC0ED010AB1EE041AB2EE090A10EE6D
:10331000810A80ED020A10EE101A0D4A914204D380
:10332000BAEE040A80ED020A704710EE101A094A3C
:103330009142F9DBB2EE040A80ED020A7047000008
:1033400050000020000080393333534058000020E3
:10335000000020C1000020417047000070B586B019
:103360000121084600F0CCFF0121102001F00EF8E9
:103370001E4E07220A21304600F0BEF9072209211D
:10338000304600F0B9F900248DF8164001208DF880
:10339000170002258DF81450410204918DF8155044
:1033A00004A9304600F06AF98DF8145068020490C0
:1033B00004A9304600F062F94FF4E1300090ADF816
:1033C0000440ADF80640ADF80840ADF80C400C20C4
:1033D000ADF80A00064C6946204602F067F8012164
:1033E000204602F04FF806B070BD00000000024019
:1033F0000010014001B5034800994160416800296F
:10340000FCD108BD2C00002010B5022000F010F8FF
:10341000002806D003F0A0FFBDE81040022000F015
:1034200001B810BD0149086070470000143C01401C
:1034300001460020024A12680A4200D0012070476B
:10344000143C014030B51B4A83790168002B2AD017
:1034500013688B431360111D0B680468A3430B6052
:10346000017911440B68046823430B60114C083444
:103470002168036899432160231D19680568A943E1
:1034800019604179102905D011440A680068024387
:103490000A6030BD21680268114321601968006824
:1034A0000143196030BD0079104402688A4302600C
:1034B00030BD0000003C01407FB50121080200F052
:1034C0001FFF0121880300F061FF022502950024FF
:1034D0008DF80C408DF80F4002A90B4800F0CEF893
:1034E0000121082001F0B2FD00958DF8044008206C
:1034F0008DF8050001208DF806006846FFF7A2FF51
:1035000000F0AAFE7FBD00000020024000224FF024
:10351000204310280AD0B0F5807F09D0B0F5805F35
:1035200009D0D3F85801814309D107E0586EFAE772
:10353000D3F88400F7E7D3F8A400F4E7012210469B
:1035400070470000D0E9001211438268C068521E23
:10355000520142EA402001430148016070470000E7
:10356000500100A070B50468A100A1F1C041D1F8DC
:103570004011CE0BF603D0E901121143D0E9032329
:103580001A4311434269C36911438269056A1143B1
:103590001943426A2943114331434FF02046002C1E
:1035A0003CD0D6F840416FF30E042B432243134323
:1035B000C6F8403102689200A2F1C042C2F8401140
:1035C000016871B38900A1F1C041D1F8481101F03F
:1035D0007043816A0A684C68521E641E42EA0414F1
:1035E0008A68521E44EA02240A8A521E44EA0242AF
:1035F0001A43D6F8483103F07043CC68898A641EB8
:103600002403491E44EA01511943C6F848110068D1
:103610008000A0F1C040C0F8482170BDC6F840113C
:10362000CEE7FFE7D6F8481101F07041806A0268E2
:103630004368521E5B1E42EA03138268521E43EA2D
:103640000223C268521E43EA0233028A521E43EA30
:103650000243828A007E521E43EA0252401E42EA20
:1036600000600843C6F8480170BD000002490A68BE
:1036700042EA400008607047540100A02DE9F04183
:10368000002201274FF0030C07FA02F50B682B40CC
:10369000AB422CD1066853000CFA03F4A643066033
:1036A0000E79D0F800809E4046EA080606600E7942
:1036B000012E01D0022E12D18668A64386604E7973
:1036C000D0F808809E4046EA080686604668AE4309
:1036D000466045688E799640B6B235434560C56808
:1036E000A543C560CC799C40C3681C43C460521C90
:1036F000102AC9D3BDE8F08110B54B07DB0E9A4004
:10370000C90800EB8100016A0F249C40A1430162BB
:10371000016A1143016210BD418370470183704704
:10372000014800887047000028000020FEE70029BB
:1037300004D0018841F4806101807047018821F440
:10374000806101807047C94381827047002904D09D
:10375000018841F0010101807047018821F00101D9
:103760000180704710B5154988420AD101214C05E6
:10377000204600F0FDFD2046BDE81040002100F08D
:10378000F7BD0F4988420AD101218C05204600F07F
:10379000EFFD2046BDE81040002100F0E9BD0949D9
:1037A00088420AD10121CC05204600F0E1FD2046E7
:1037B000BDE81040002100F0DBBD10BD005400400A
:1037C00000580040005C0040002904D0018841F40A
:1037D000807101807047018821F4807101807047F9
:1037E000002904D0018841F40071018070470188EC
:1037F00021F40071018070470CB502460020009250
:103800000A0F019221F07F41019A002A03D0009A09
:103810001432009203E0090C009A18320092009AC8
:1038200012680A4200D001200CBD00007FB504469A
:103830000D46A08820F03F06684600F0B5FD0298CE
:103840002749B0FBF1F189B20E43A680228822F00D
:1038500001022280234B2A689A4209D85200B0FB09
:10386000F2F080B2042800D20420491C218423E015
:10387000EB88A3F53F46FF3E0BD002EBC20303EB00
:103880000212B0FBF2F080B240F48040020506D094
:1038900007E002EB4202B0FBF2F080B2F6E740F044
:1038A000010040F400404FF4967251434FF47A7295
:1038B000B1FBF2F1491C2184A083208840F0010073
:1038C000208020884FF6F5310840A9886A89114385
:1038D00001432180A8892989084320817FBD0000F8
:1038E00040420F00A086010008B5009000980844EF
:1038F00000900098008808BD008AC0B27047002A76
:1039000002D041F0010101E001F0FE0101827047A7
:1039100001827047002904D0018841F400410180F0
:1039200070470188C1F30E01018070477FB50546DD
:10393000174C01212046FFF753FF01212046FFF7D6
:10394000E9FF00212046FFF7E5FF2046FFF70AFFC9
:103950000020ADF804004BF6FF72ADF80620ADF87C
:1039600008002015ADF80A000001ADF80C00094868
:10397000009001212046FFF7E9FE69462046FFF747
:1039800055FF294604A001F045FE04B0012070BD9A
:1039900000540040801A06003C3C2D4932432D451E
:1039A00052524F522D3E3E204932432063616C6C8F
:1039B0006261636B206572726F7220636F64652051
:1039C0003D2025640A00000030B587B0012148057C
:1039D00000F0C0FC0121022000F092FC4020059084
:1039E00002208DF8180003208DF8190001208DF8B1
:1039F0001A0000248DF81B40194D04220621284688
:103A0000FFF77AFE05A92846FFF738FE80210591C9
:103A1000042207212846FFF76FFE05A92846FFF775
:103A20002DFE104D2846FFF79DFEADF808404BF6E1
:103A3000FF71ADF80A10ADF80C402915ADF80E1065
:103A40000901ADF810100849019101212846FFF73E
:103A50007DFE01A92846FFF7E9FE07B030BD000052
:103A60000004024000540040801A060070B58AB07D
:103A7000C0F30744C0F30725C6B2FFF7A9FA4FF415
:103A800040300090012001900494039502960F208D
:103A900005900B4880680690002007904FF4F07066
:103AA00008904FF4487009906846FFF7A7FAFFF7AF
:103AB00001FB0220FFF798FA0028FAD00AB070BD87
:103AC0003400002010B4203AD3B2054A12691468B9
:103AD000D2885A4304EB420210BC00F025B8000023
:103AE000340000202DE9F04180460D4600240D4EA3
:103AF0004FF4487708E021464046FFF7E3FF30697E
:103B00008088204484B26D1CBC4208D22A78002AE6
:103B100005D030698188081980B28842EBD2BDE8AF
:103B2000F0810000340000202DE9F04300254FF41F
:103B300016635843DFF88880D8F808C0D8F81070AA
:103B400038E000232EE00C26B4FBF6F6F6004FF02A
:103B5000800909FA06F932F8156049FA03F919EAF9
:103B6000060F01D10C2C08D94FF0010909FA03F90D
:103B700016EA090F0BD10C2C09D901EB410666445A
:103B8000D8F8044034520644240CB47008E001EB29
:103B900041066644D8F8004034520644240CB47000
:103BA000491C5B1CBC889C42CDD8BB88C3F54873BC
:103BB00019446D1CFB88AB42C3D8BDE8F0830000FC
:103BC000340000202DE9FC5F012140F2FF1000F0DD
:103BD00097FB4FF00408CDF8008002208DF8050017
:103BE0008DF8040000208DF806008DF80700694666
:103BF000AA48FFF743FD0E220221A848FFF77CFDEB
:103C00004FF00809CDF800906946A448FFF736FD4B
:103C10000E220321A148FFF76FFD4FF4807ACDF803
:103C200000A069469D48FFF729FD0E2208219B4808
:103C3000FFF762FD0124009469469948FFF71EFDD5
:103C4000092200219648FFF757FD4FF4006BCDF88D
:103C500000B069469348FFF711FD0E220B219148F1
:103C6000FFF74AFD2003009069468E48FFF706FDE6
:103C70000E220C218B48FFF73FFD02200090694681
:103C80008748FFF7FBFC092201218548FFF734FD37
:103C90004025009569468448FFF7F0FC0E22062176
:103CA0008148FFF729FD2020009069467F48FFF7F3
:103CB000E5FC0E2205217D48FFF71EFD00956946B3
:103CC0007A48FFF7DBFC0E2206217848FFF714FD47
:103CD0006003009069467148FFF7D0FC0E220D2169
:103CE0006E48FFF709FDA602009669466E48FFF789
:103CF000C5FC09220A216C48FFF7FEFCE003009096
:103D000069466648FFF7BAFC0E220F216348FFF7A9
:103D1000F3FC009469466648FFF7B0FC0E220021D0
:103D20006348FFF7E9FC8027009769466148FFF781
:103D3000A5FC0E2207215F48FFF7DEFCCDF80080CE
:103D400069465B48FFF79AFC0E2202215848FFF7AC
:103D5000D3FC4FF01008CDF8008069465348FFF7B8
:103D60008DFC0E2204215148FFF7C6FC2003009071
:103D700069464D48FFF782FC0E220C214A48FFF7A6
:103D8000BBFC00954C4D69462846FFF777FC0E2298
:103D900006212846FFF7B0FCCDF800B0694642483E
:103DA000FFF76CFC0E220B213F48FFF7A5FCCDF876
:103DB000008069463E48FFF761FC0E2204213C4822
:103DC000FFF79AFCCDF8009069463648FFF756FC9D
:103DD0000E2203213348FFF78FFCCDF800A069467F
:103DE0002F48FFF74BFC0E2208212D48FFF784FCDB
:103DF0004FF40079CDF8009069462948FFF73EFC62
:103E00000E2209212648FFF777FC009769462648CD
:103E1000FFF734FC0E2207212348FFF76DFC0096C4
:103E200069462348FFF72AFC0E220A212048FFF7A3
:103E300063FCCDF8009069461D48FFF71FFC0E2279
:103E400009211B48FFF758FC00961C4E6946304676
:103E5000FFF714FC0E220A213046FFF74DFCCDF887
:103E6000008002208DF805008DF8044000208DF8B8
:103E700006008DF8074069462846FFF7FFFB0097CC
:103E800069462846FFF7FAFB10212846FFF746FC53
:103E900080212846FFF742FCBDE8FC9F001C024041
:103EA00000040240000002400018024000100240DE
:103EB0000020024000080240000C024000140240B2
:103EC00001480069704700003400002000B58FB041
:103ED0000121880600F05AFA0121C80500F010FA05
:103EE000FFF770FE00F074FD062207214FF4D27038
:103EF00000F0D8FA4FF4003000F0C4FA012000F0CE
:103F0000CBFA3D2000F0A2FA0028FAD00020009061
:103F10000190029003900C900D900E9004900590EB
:103F20002E2006901720079040F24E30089040F265
:103F3000F710099040F262300A9040F20D200B9089
:103F4000684600F0D3F8012000F0C0F80FB000BDC3
:103F500030B591B02F20019040F24E3002901820E1
:103F6000039040F2F710049001200590FF20069086
:103F70000790089009900A904FF480600B900724F6
:103F80000C9440F663100E90C01E0F904FF4F0702A
:103F900010904FF050400D90114D01A9284600F0AF
:103FA00007F910490D914FF4C0610B910C940C4C22
:103FB00001A98034204600F0FBF8012000F044F90C
:103FC0000121284600F0E8F80121204600F0E4F83D
:103FD000012000F039F9044800F00EF811B030BDAE
:103FE00084680140009411D048000020014A10600C
:103FF000516070473400002001490861704700009B
:10400000340000200649002804D0064888600120BA
:10401000C86070474FF0504088600020C86070470B
:1040200034000020009411D010B50949C968002956
:1040300008D00146074800F0ADF8BDE81040012067
:1040400000F002B901460348803800F0A3F8F4E715
:1040500034000020046901402DE9FC410121882041
:1040600000F04EF94FF48065009501218DF80410A1
:1040700000208DF806008DF807108DF80500114F0F
:1040800069463846FFF7FAFA6C00009469463846EC
:10409000FFF7F4FA6600009669463846FFF7EEFA35
:1040A0000094094F69463846FFF7E8FA0549183188
:1040B0000D800C800E8021463846FFF72DFBBDE8B1
:1040C000FC810000001C0240000C02400649002850
:1040D00004D0086840F0010008607047086820F0CC
:1040E00001000860704700001868014030B5264A9A
:1040F000136826490B401360038A1B041468456942
:104100002C431C431460121D13680B401360038B77
:104110001B041468C5692C431C431460121D1368EA
:104120000B401360038C1B041468456A2C431C432A
:104130001460121D13680B401360018D090413688D
:10414000C46A23430B431360111D0A68104B1A40C5
:104150000A60D0E900231A43D0E9023423431A430A
:104160000B681A430A60416B0A02018E0B04064970
:1041700024310C6804F07F440C600C68806B13439E
:1041800004431C430C6030BD0868014000F800F097
:104190008F88FE0F41617047002904D0016841F00B
:1041A000010101607047016821F001010160704761
:1041B00070B58A881204436803F4704343600B6847
:1041C000134343608A891204836803F47043836055
:1041D0008B6813438360026922F0070202610A6957
:1041E0000261CA6913020A8C120491F82440240661
:1041F0008569002585618E6922431E4316438661C9
:10420000426922F0FF0242614A694261C26940F29A
:1042100007739A43C261D1E90A231A43C261826AD1
:1042200085620A6B82620A8F1204C36A03F0E0237C
:10423000C3624B6B1343C362026B6FF30A020263E8
:10424000C96B016370BD0000014908607047000040
:1042500024680140FEE7704708B54FF4C06000F0E5
:1042600043F807208DF8000001208DF801008DF83B
:1042700002008DF80300684600F002F808BD000057
:1042800030B50F23C27801250178002A1FD0154AC6
:10429000126802F4E062C2F5E062C2F30722C2F1E2
:1042A0000404D3404278A24084781C401443220185
:1042B00001F1E02181F80024007800F01F018D4019
:1042C0004009800000F1E020C0F8005130BD01F04D
:1042D0001F0085404809800000F1E020C0F88051AF
:1042E00030BD00000CED00E00249084302490860BF
:1042F000704700000000FA050CED00E07047000078
:10430000054A002903D01168014311607047116804
:10431000814311607047000030380240054A00298F
:1043200003D0116801431160704711688143116027
:104330007047000010380240054A002903D0116878
:10434000014311607047116881431160704700009C
:1043500038380240054A002903D011680143116032
:104360007047116881431160704700004038024077
:10437000054A002903D01168014311607047116894
:10438000814311607047000020380240054A00292F
:1043900003D01168014311607047116881431160B7
:1043A000704700004438024070B5244B196801F092
:1043B0000C01234C00291ED0224E04291DD00829AF
:1043C0001DD00460196801F0F00109091E4A545C0F
:1043D0000168E14041601C6804F4E054A40A145DE3
:1043E00021FA04F484601B6803F460435B0BD25C25
:1043F000D140C16070BD0460E4E70660E2E70F4AA7
:10440000121F1168C1F38055116801F03F0135B1E9
:10441000B6FBF1F11468C4F38814614305E0B4FB02
:10442000F1F11468C4F3881461431268C2F30142C5
:10443000521C5200B1FBF2F10160C3E708380240A0
:104440000024F40040787D01140000200246002082
:10445000510901290BD002290DD00949096802F040
:104460001F02012393400B4200D0012070470449F2
:1044700074390968F3E70249091F0968EFE700008A
:1044800074380240034A116821F44031014311603D
:10449000704700008C3802400149086770470000EF
:1044A00000004742800140EA0160024940EA027090
:1044B00008607047883802407CB501214FF4827053
:1044C000FFF71EFF0820009001208DF80400002057
:1044D0008DF8060002218DF807108DF80500144CA8
:1044E00069462046FFF7CAF804210091114D69463C
:1044F0002846FFF7C3F84021009169462846FFF798
:10450000BDF88021009169462846FFF7B7F80821D9
:104510002046FFF701F904212846FFF7FDF8402166
:104520002846FFF7F9F880212846FFF7F5F87CBD0B
:1045300000200240000802401CB501210420FFF7C2
:10454000DFFE0820009003208DF8040000208DF885
:10455000070069460148FFF791F81CBD00080240BA
:10456000F0B599B001218805FFF7CAFE2B480B90E2
:104570002B480C9000240D9401250E950F94109457
:10458000E8021190800012904611139600011490D9
:1045900015941695179418940A94224F0AA9384630
:1045A000FEF79CFD01213846FEF78CFD01213046C7
:1045B000FFF7ECFE0094019402944FF470600390B6
:1045C0006846FEF769FC04A8FEF7F7FC04948DF832
:1045D00014408DF815500694079408948DF82450D3
:1045E0000E4C04A94C3C2046FEF782FC032301221A
:1045F0000D212046FEF7A2FC01212046FEF76CFCAF
:1046000001212046FEF75CFC01212046FEF738FC24
:104610002046FEF7CDFC19B0F0BD00004C20014053
:10462000500000201064024010B5FFF785FFBDE880
:104630001040FFF795BF00002DE9FC5F0121FC2031
:10464000FFF75EFE02208DF804008DF805000020C3
:104650008DF806008DF80700012000906946D648C5
:10466000FFF70CF80C220021D348FFF745F8022091
:1046700000906946D048FFF701F80C220121CE488E
:10468000FFF73AF8042600966946CB48FEF7F6FF96
:104690000C220221C848FFF72FF808200090694635
:1046A000C548FEF7EBFF0C220321C348FFF724F8AF
:1046B000102700976946C048FEF7E0FF0C2204214E
:1046C000BD48FFF719F84FF02008CDF80080694683
:1046D000B948FEF7D3FF0C220521B748FFF70CF8C5
:1046E0004FF48059CDF800906946B348FEF7C6FFF5
:1046F0000C221146B048FEF7FFFF4FF4005ACDF8E8
:1047000000A06946AC48FEF7B9FF0C220D21AA486B
:10471000FEF7F2FF350300956946A748FEF7AEFFA6
:104720000C220E21A448FEF7E7FF6C0000946946B6
:10473000A148FEF7A3FF0C220F219F48FEF7DCFFE4
:104740000120009069469D48FEF798FF0C22002149
:104750009A48FEF7D1FF0220009069469748FEF77D
:104760008DFF0C2201219548FEF7C6FF0096694691
:104770009248FEF783FF0C2202219048FEF7BCFF0F
:10478000009569468E48FEF779FF0C220E218C4871
:10479000FEF7B2FF009469468948FEF76FFF0C22CE
:1047A0000F218748FEF7A8FF012000906946844842
:1047B000FEF764FF0C2200218148FEF79DFF0220D6
:1047C000009069467E48FEF759FF0C2201217C4883
:1047D000FEF792FF8020009069467A48FEF74EFF70
:1047E0000C2207217748FEF787FFE61100966946FD
:1047F0007448FEF743FF0C2208217248FEF77CFF45
:10480000A011009069466F48FEF738FF0C2209217D
:104810006C48FEF771FF4FF4806BCDF800B069462D
:104820006848FEF72BFF0C220A216648FEF764FF5A
:104830002011009069466348FEF720FF0C220B21EF
:104840006048FEF759FFCDF8009069465D48FEF7D5
:1048500015FF0C2211465B48FEF74EFFCDF800A075
:1048600069465848FEF70AFF0C220D215548FEF70D
:1048700043FF009569465348FEF700FF0C220E21C6
:104880005048FEF739FF009469464E48FEF7F6FEA1
:104890000C220F214B48FEF72FFF0096694648482F
:1048A000FEF7ECFE0C2208214548FEF725FFA0117B
:1048B000009069464248FEF7E1FE0C22092140487B
:1048C000FEF71AFFCDF800B069463D48FEF7D6FE68
:1048D0000C220A213A48FEF70FFF402000903A4D83
:1048E00069462846FEF7CAFE0C2206212846FEF736
:1048F00003FF009769463148FEF7C0FE0C220421F1
:104900002E48FEF7F9FECDF8008069462B48FEF7E9
:10491000B5FE0C2205212948FEF7EEFE012000908D
:104920002A4F69463846FEF7A9FE0C220021384678
:10493000FEF7E2FE2111009169461F48FEF79EFE38
:104940000C220B211C48FEF7D7FE009469461B4839
:10495000FEF794FE0C220F211848FEF7CDFE0096BC
:1049600069461648FEF78AFE0C2208211348FEF716
:10497000C3FE8020009069462846FEF77FFE0C2289
:1049800007212846FEF7B8FE0220009069460D4830
:10499000FEF774FE0C2201210A48FEF7ADFE01204D
:1049A000009069460748FEF769FE0C220021054881
:1049B000FEF7A2FEBDE8FC9F001402400018024072
:1049C000000C024000100240001C0240000802409F
:1049D00000B593B0FFF730FE01210846FFF7ACFCAD
:1049E0000220019007210291042203920491059074
:1049F0000690079001200890099008200A90102046
:104A00000B9040200C904FF4C0700D9000200E9041
:104A100051020F9110908800119001A8129008A8DF
:104A2000FEF7A0FD00F002F813B000BD2DE9FF4134
:104A30000125009508260196029500240394202163
:104A40000120FEF763FD0028F9D16846FEF77AFDE4
:104A50000A2000F041F8022000900196029503948C
:104A600020210120FEF752FD0028F9D16846FEF70B
:104A700069FD0320009001960427029703942021EA
:104A80000120FEF743FD0028F9D16846FEF75AFDE4
:104A900020210120FEF73AFD0028F9D16846FEF7F3
:104AA00051FD40F23120009701960295039020219C
:104AB0000120FEF72BFD0028F9D16846FEF742FDE4
:104AC00040F2AB20FEF7D2FD20210120FEF71EFDB3
:104AD0000028F9D1BDE8FF8101B581B005490198F1
:104AE0004843009002E00098401E00900098002883
:104AF000F9D10CBDA08601002DE9FF4F83B004461B
:104B000016461D4600200290F54801904FF40039EA
:104B1000DFF8D0B309E00198411E019105D207B03A
:104B20000720BDE8F04FFEF701BF49465846FEF7A3
:104B300063FE0028EFD101215846FEF745FE4FF4F1
:104B4000617ACDF804A0E84F09E00199481E019070
:104B500005D207B00820BDE8F04FFEF7E7BE3946A2
:104B60005846FEF749FE0128EFD14FEA440808F005
:104B7000FF0100225846FEF7C2FECDF804A0DA4C31
:104B8000641C09E00198411E019105D207B009207B
:104B9000BDE8F04FFEF7CABE21465846FEF72CFE90
:104BA0000128EFD114215846FEF79EFE18215846E1
:104BB000FEF79AFECDF804A009E00198411E01918C
:104BC00005D207B00A20BDE8F04FFEF7AFBEC649D8
:104BD000C4487F31FEF710FE0128EED1C148049988
:104BE000FEF796FECDF804A0DFF8F8B209E00198D0
:104BF000411E019105D207B00B20BDE8F04FFEF732
:104C000095BEB94958467F31FEF7F6FD0128EED131
:104C100001215846FEF7D8FDCDF804A009E001981F
:104C2000411E019105D207B00C20BDE8F04FFEF700
:104C30007DBE39465846FEF7DFFD0128EFD15F46BD
:104C400008F0FF0101223846FEF759FECDF804A016
:104C500009E00198411E019105D207B00D20BDE881
:104C6000F04FFEF763BE21463846FEF7C5FD01282A
:104C7000EFD1DFF874B2012E0BF13F0B0FD0022EF3
:104C800035D0032E65D014213846FEF72DFE1821AD
:104C90003846FEF729FE0024A6F10308F9E00021BA
:104CA0003846FEF744FD14213846FEF71DFE182154
:104CB0003846FEF719FE01213846FEF791FDCDF882
:104CC00004A009E00199481E019005D207B00E200A
:104CD000BDE8F04FFEF72ABE59463846FEF78CFD78
:104CE0000128EFD13846FEF707FE2870D3E00021F7
:104CF0003846FEF71CFD388840F4006038801421E7
:104D00003846FEF7F1FD18213846FEF7EDFDCDF8E7
:104D100004A0754CE41C09E00199481E019005D2DD
:104D200007B00F20BDE8F04FFEF700BE2146384621
:104D3000FEF762FD0128EFD101213846FEF750FD54
:104D40003846FEF7D9FD28703846FEF7D5FD687065
:104D5000A1E014213846FEF7C7FD18213846FEF7BA
:104D6000C3FDCDF804A0604CE41C09E00199481E85
:104D7000019005D207B01020BDE8F04FFEF7D6BD78
:104D800021463846FEF738FD0128EFD1002138468C
:104D9000FEF7CDFC3846FEF7AFFD287001213846FE
:104DA000FEF71EFD3846FEF7A7FD6870CDF804A09B
:104DB00009E00199481E019005D207B01120BDE815
:104DC000F04FFEF7B3BD59463846FEF715FD0128F2
:104DD000EFD13846FEF790FDA8705CE0444540D125
:104DE000CDF804A0404EF61C09E00199481E019040
:104DF00005D207B01020BDE8F04FFEF797BD314651
:104E00003846FEF7F9FC0128EFD100213846FEF7BD
:104E10008EFC3846FEF770FD01462046641C29547E
:104E200001213846FEF7DCFC3846FEF765FD661CBE
:104E30002855CDF804A009E00199481E019005D23B
:104E400007B01120BDE8F04FFEF770BD5946384657
:104E5000FEF7D2FC0128EFD13846FEF74DFDA855EC
:104E600019E0CDF804A009E00198411E019105D296
:104E700007B01220BDE8F04FFEF758BD594638463E
:104E8000FEF7BAFC0128EFD13846FEF735FD28556C
:104E9000641CB442A2D314493846C91CFEF753FC23
:104EA0000F49019109E00198421E019205D207B015
:104EB0001320BDE8F04FFEF739BD49463846FEF7EE
:104EC0009BFC0028EFD101213846FEF730FC3988E1
:104ED00021F400613980029807B0BDE8F08F00002E
:104EE000B01E040000540040010000102DE9F84FEE
:104EF00081460C46174698464FF0000A4F480090EE
:104F00004FF400364E4D08E00098411E009104D247
:104F1000BDE8F84F0120FEF709BD31462846FEF7EF
:104F20006BFC0028F0D101212846FEF74DFC4FF420
:104F300061760096DFF80CB108E00098411E009100
:104F400004D2BDE8F84F0220FEF7F0BC59462846CF
:104F5000FEF752FC0128F0D14FEA4960010E002211
:104F60002846FEF7CCFC0096DFF8D89009F101093D
:104F700008E00098411E009104D2BDE8F84F0320DC
:104F8000FEF7D4BC49462846FEF736FC0128F0D18E
:104F900014212846FEF7A8FC18212846FEF7A4FC99
:104FA0000096DFF8A09009F17F0908E00098411E03
:104FB000009104D2BDE8F84F0420FEF7B7BC494683
:104FC0002846FEF719FC0128F0D121462846FEF7B5
:104FD0009FFC002416E0009608E00098411E009116
:104FE00004D2BDE8F84F0520FEF7A0BC494628468C
:104FF000FEF702FC0128F0D118F804102846FEF74D
:1050000087FC641CBC42E6D300960E4CE41C08E00E
:105010000098421E009204D2BDE8F84F0620FEF729
:1050200085BC21462846FEF7E7FB0128F0D1012187
:105030002846FEF7D5FB5046BDE8F88FB01E0400A9
:1050400000540040010000107047000010B58A07AE
:10505000120F0F23934021F003040649214401F667
:1050600008010C689C430C600B68904003430B6084
:1050700010BD0000003001402DE9F04706460F4604
:10508000904699460024FEF74BFB05464B464246A8
:1050900039463046FFF730FD00280AD0002D08D0F1
:1050A0002146641CE4B2042903D82846FEF7A2F97D
:1050B000ECE7BDE8F0872DE9F04706460F4690463D
:1050C00099460024FEF72CFB05464B4642463946DE
:1050D0003046FFF70BFF00280AD0002D08D02146EC
:1050E000641CE4B2042903D82846FEF783F9ECE7F0
:1050F000BDE8F0871CB50021019100912E4A10688F
:1051000040F4803010604FF4A043106800F4003089
:1051100000900198401C0190009810B901989842A5
:10512000F3D11068800302D50120009000E00091C7
:10513000009801283FD120484030016841F080515B
:1051400001601E49086840F4404008601A48083071
:1051500003680360036843F400430360036843F497
:10516000A0530360041F164B2360136843F0807341
:10517000136013689B01FCD50A6842F480320A6010
:105180004A68D203FCD50A6842F400320A604A68D1
:105190009203FCD50B4A40F205711160016821F0C1
:1051A00003010160016841F0020101600168C1F37F
:1051B00081010229FAD11CBD003802400070004074
:1051C000195A4007003C024010B500F04DF9BDE807
:1051D000104000F041B900000D484FF47A710068AA
:1051E000B0FBF1F0401EB0F1807F01D301200AE056
:1051F0004FF0E0214861074AF020107000208861DC
:10520000072008610020002800D0FEE7704700005A
:105210000000002023ED00E010B51248016841F4C1
:10522000700101601048016841F0010101600E4AFF
:1052300000210832116002680C4B1A400260031D05
:105240000B4A1A60026822F48022026006480C3081
:105250000160FFF74FFF03494FF00060803908609D
:1052600010BD000088ED00E000380240FFFFF6FEB0
:105270001030002470B51A4D0121284600F054F872
:1052800000282CD0174C2068401C2060052190FB82
:10529000F1F201FB120008B9FEF724F820684FF480
:1052A0007A7190FBF1F201FB120060B904F052FC3C
:1052B0000D480068FDF786FC41EC100B0BA053EC89
:1052C000102B00F0A7F90E492068884201DB00206E
:1052D00020602846BDE87040012100F016B870BD7E
:1052E000000001402400002060000020C6F8D1B971
:1052F000D6B5203D202566204B70610A00000000D5
:105300006043993BC94301827047C943018270479A
:10531000002904D0018841F0010101807047018813
:1053200021F001010180704702460020138A0B40E2
:1053300092890A40002B02D0002A00D00120704739
:10534000002A03D082890A438281704782898A4376
:10535000828170473EB501210846FFF717F8092002
:10536000019044F24F60ADF800000020ADF8080055
:10537000ADF8020001208DF80A00094C694620466C
:1053800000F010F801212046FFF7BCFF0122114672
:105390002046FFF7D5FF01212046FFF7B9FF3EBDAC
:1053A0000000014030B50288164C174DA0420DD0C8
:1053B000A8420BD0B0F1804F08D0144B984205D0D2
:1053C000134B984202D0134B984203D122F0700342
:1053D0004A881A43104B984206D0104B984203D08B
:1053E00022F440730A891A4302804A68C2620A881A
:1053F0000285A04201D0A84201D1897A018601210B
:10540000818230BD000001400004014000040040E2
:1054100000080040000C0040001000400014004054
:1054200010B500F004F8BDE81040FFF793BF08B5D1
:105430004FF4A060FEF758FF19208DF800000120FE
:105440008DF8010003218DF802108DF803006846E5
:10545000FEF716FF08BD000002480168491C016004
:10546000704700002C00002003484168002902D04A
:105470004168491E416070472C0000208A05C943DD
:1054800001807047002904D0818941F40051818155
:105490007047818921F400518181704702460020C4
:1054A00012880A4200D00120704700007FB50446F0
:1054B0000D46208A20F44051E88808432082A089C4
:1054C00041F20C618843A9882A8911436A89024301
:1054D0001143A181A08A20F44071A8890843A082C9
:1054E0006846FEF761FF1E48844202D01D48844290
:1054F00001D1039800E00298A189090408D500EBC6
:10550000C00101EB001029684900B0FBF1F007E091
:1055100000EBC00101EB001029688900B0FBF1F03D
:105520006422B0FBF2F109010B096FF018056B431F
:1055300000EB8300A3891D044FF0320307D503EB72
:10554000C000B0FBF2F000F00700084306E003EBF8
:105550000010B0FBF2F000F00F00084320817FBD87
:1055600000100140001401408088C0F3080070471B
:10557000C1F3080181807047FEE70FB4F0B5C7B0F2
:105580000446092C14D2DFE804F0050505050505DD
:10559000051305004FAA469206A84E9900F05EF842
:1055A0000546002D06DC284647B0F0BC5DF814FB2C
:1055B0000020F9E718216846FDF7FDF824208DF852
:1055C000000001208DF801008DF802400D208DF8BB
:1055D00015000A208DF8160000246E4616E0281BE0
:1055E000122800DB1220C7B21221F01CFDF7E3F8ED
:1055F00006A801193A46F01CFDF7B6F80021705CC8
:1056000001F0A0FE491C1729F9DB1234AC42E6DB9D
:105610000020C9E70FB4054B10B503A9044A02984E
:1056200000F034FD10BC5DF814FB0000217300088D
:10563000A00000200FB4084B10B504A902AA0398DB
:1056400000F024FD044602A9002001F0B6F820462F
:1056500010BC5DF814FB0000BB67000837B51446AA
:105660000846064B6A46214600F010FD044669468E
:10567000002001F0A2F820463EBD0000BB670008F4
:105680004100080218BF04200A0E18BF40F00100B4
:105690004FF07F4232EA010108BF40F002000128CA
:1056A00008BF05207047000010B510EE104A4FF0FB
:1056B0001A402DED028B00EB4400B0F1C85F4AD8D0
:1056C0004FF0FC40B0EB440F22D2B0EEC00AF7EE30
:1056D000000A30EEC00AF6EE000A20EE208A18EE2C
:1056E000100A04F058FD00EE100A14F0004F1DBF20
:1056F0009FED281ADFED280AB1EE400A9FED271A28
:1057000008BFF0EE410AF8EE001A20EE210A05E08B
:1057100020EE008A9FED221ADFED220ADFED221A29
:105720009FED222A70EEC00A20EE080A08EE212A18
:10573000DFED1F1A48EE021A9FED1E2A08EE212AFD
:10574000DFED1D1A48EE021ABDEC028B40EE610A35
:1057500030EE810A10BD4FF0CC40B0EB440F82BF59
:105760009FED160ABDEC028B10BD4FF07F40B0EBF1
:10577000440F05D2BDEC028BBDE8104000F0D5BA55
:10578000012000F0BBFBBDEC028BBDE8104000F037
:10579000D3BA00000000494022AA7D3A0000000070
:1057A0000000C93F22AAFD3924FE1C3DC78AD83C0F
:1057B0001E67383D1B93993DAFAA2A3EDB0FC93FB8
:1057C00010EE100A10B510EE901A4FF0684202EB7E
:1057D00040032DED028BB3F1654F3CBF02EB41025C
:1057E000B2F1654F7CD200BFC0F3C753C1F3C752BB
:1057F0009A1A1B2A09DD10F0004F14BF9FED6E0AA4
:105800009FED6E0ABDEC028B10BD12F11A0F1BDA70
:1058100011F0004F09D010F0004F0CBF9FED680A47
:105820009FED680ABDEC028B10BD80EE208A18EE59
:10583000100AFFF725FF042808BF00F085FAB0EE34
:10584000480ABDEC028B10BD4200B2EB410F37D9C4
:1058500010F0004F19BFDFED5C1A9FED5C1ADFED11
:105860005C1A9FED5C1AB0EE602A0A46F1EE400A1F
:1058700080F00041B0EE420A10460A1A5200B2F11E
:10588000807F34D2484010F0004FDFED532A9FED67
:10589000533A1DBFBEEE002A71EEE21A31EE431AF2
:1058A000B6EE002A04BF71EEA21A31EE031AF0EE32
:1058B000402A42EE602A40EE020A82EEA02A18E058
:1058C00011F0004F04BF9FED461AF0EE411AD4D0FC
:1058D00010F0004F1CBFDFED431A9FED431A00E0AC
:1058E00026E004BFDFED411A9FED411AC5E780EEC7
:1058F000202A22EE020ADFED3F0ADFED3F2ABDEC4F
:10590000028B40EE202ADFED3D0A40EE220ADFED59
:105910003C2A40EE202ADFED3B0A40EE220A22EE2E
:10592000000A00EE201A31EE020A30EE210A10BD04
:105930004FF07F42B2EB400F28BFB2EB410F05D2D0
:10594000BDEC028BBDE8104000F0F2B940EA010363
:105950005B0008BF41F0FF410BD0B2EB400F08BF26
:10596000B2EB410F08D120F0804000EE100A21F088
:10597000804100EE901A37E7B2EB400F12BF5FEAAA
:10598000410240F0FF4001F000413FF42DAF4A00DA
:1059900092EA40033FF528AF002AACBF9FED1A1AE8
:1059A0009FED1A1A20EE010A60EE810A10EE100A2D
:1059B00010EE901A18E70000DB0FC9BFDB0FC93FDC
:1059C000DB0F4940DB0F49C00000C9BF22AAFDB967
:1059D0000000C93F22AAFD390060ED3EC30ACE3760
:1059E00000000000000049C022AA7DBA0000494022
:1059F00022AA7D3A2DAD65BD8FB8D53D0FB511BE3C
:105A000061C84C3EA8AAAABE0000804F0000802FAB
:105A100010EE101A08B5444A6846B2EB410F28D977
:105A20004FF0E640B0EB410F94BF00204FF0FF3045
:105A300000900098002861DB60EE000A10F0010F72
:105A400045D010F0020FDFED391A9FED391A00EE44
:105A5000E11ADFED381A40EE811A21EEA01AF0EEBD
:105A6000400A40EE010A08BFF1EE600AB0EE600A9B
:105A700008BD314B21F0004293423CD911F0004F58
:105A8000DFED2E0A20EE201ADFED2D0A19BF31EED0
:105A9000601A71EE200A31EE201A71EE600ABDEE36
:105AA000E01A11EE100A9FED271A00F0030000EE35
:105AB000C10A9FED251A009000EEC10A9FED231A3E
:105AC00000EEC10A9FED221A00EEC10AB1E79FED78
:105AD000211A9FED210A10F0020F00EE810A9FEDBE
